{
  "_format": "hh3-artifact-1",
  "contractName": "VeriPrompt",
  "sourceName": "contracts/VeriPrompt.sol",
  "abi": [
    {
      "inputs": [
        {
          "internalType": "address",
          "name": "initialOwner",
          "type": "address"
        }
      ],
      "stateMutability": "nonpayable",
      "type": "constructor"
    },
    {
      "inputs": [
        {
          "internalType": "address",
          "name": "sender",
          "type": "address"
        },
        {
          "internalType": "uint256",
          "name": "tokenId",
          "type": "uint256"
        },
        {
          "internalType": "address",
          "name": "owner",
          "type": "address"
        }
      ],
      "name": "ERC721IncorrectOwner",
      "type": "error"
    },
    {
      "inputs": [
        {
          "internalType": "address",
          "name": "operator",
          "type": "address"
        },
        {
          "internalType": "uint256",
          "name": "tokenId",
          "type": "uint256"
        }
      ],
      "name": "ERC721InsufficientApproval",
      "type": "error"
    },
    {
      "inputs": [
        {
          "internalType": "address",
          "name": "approver",
          "type": "address"
        }
      ],
      "name": "ERC721InvalidApprover",
      "type": "error"
    },
    {
      "inputs": [
        {
          "internalType": "address",
          "name": "operator",
          "type": "address"
        }
      ],
      "name": "ERC721InvalidOperator",
      "type": "error"
    },
    {
      "inputs": [
        {
          "internalType": "address",
          "name": "owner",
          "type": "address"
        }
      ],
      "name": "ERC721InvalidOwner",
      "type": "error"
    },
    {
      "inputs": [
        {
          "internalType": "address",
          "name": "receiver",
          "type": "address"
        }
      ],
      "name": "ERC721InvalidReceiver",
      "type": "error"
    },
    {
      "inputs": [
        {
          "internalType": "address",
          "name": "sender",
          "type": "address"
        }
      ],
      "name": "ERC721InvalidSender",
      "type": "error"
    },
    {
      "inputs": [
        {
          "internalType": "uint256",
          "name": "tokenId",
          "type": "uint256"
        }
      ],
      "name": "ERC721NonexistentToken",
      "type": "error"
    },
    {
      "inputs": [
        {
          "internalType": "address",
          "name": "owner",
          "type": "address"
        }
      ],
      "name": "OwnableInvalidOwner",
      "type": "error"
    },
    {
      "inputs": [
        {
          "internalType": "address",
          "name": "account",
          "type": "address"
        }
      ],
      "name": "OwnableUnauthorizedAccount",
      "type": "error"
    },
    {
      "inputs": [],
      "name": "ReentrancyGuardReentrantCall",
      "type": "error"
    },
    {
      "anonymous": false,
      "inputs": [
        {
          "indexed": true,
          "internalType": "address",
          "name": "owner",
          "type": "address"
        },
        {
          "indexed": true,
          "internalType": "address",
          "name": "approved",
          "type": "address"
        },
        {
          "indexed": true,
          "internalType": "uint256",
          "name": "tokenId",
          "type": "uint256"
        }
      ],
      "name": "Approval",
      "type": "event"
    },
    {
      "anonymous": false,
      "inputs": [
        {
          "indexed": true,
          "internalType": "address",
          "name": "owner",
          "type": "address"
        },
        {
          "indexed": true,
          "internalType": "address",
          "name": "operator",
          "type": "address"
        },
        {
          "indexed": false,
          "internalType": "bool",
          "name": "approved",
          "type": "bool"
        }
      ],
      "name": "ApprovalForAll",
      "type": "event"
    },
    {
      "anonymous": false,
      "inputs": [
        {
          "indexed": false,
          "internalType": "uint256",
          "name": "_fromTokenId",
          "type": "uint256"
        },
        {
          "indexed": false,
          "internalType": "uint256",
          "name": "_toTokenId",
          "type": "uint256"
        }
      ],
      "name": "BatchMetadataUpdate",
      "type": "event"
    },
    {
      "anonymous": false,
      "inputs": [
        {
          "indexed": false,
          "internalType": "uint256",
          "name": "newMaxSupply",
          "type": "uint256"
        }
      ],
      "name": "MaxSupplyUpdated",
      "type": "event"
    },
    {
      "anonymous": false,
      "inputs": [
        {
          "indexed": false,
          "internalType": "uint256",
          "name": "_tokenId",
          "type": "uint256"
        }
      ],
      "name": "MetadataUpdate",
      "type": "event"
    },
    {
      "anonymous": false,
      "inputs": [
        {
          "indexed": true,
          "internalType": "address",
          "name": "previousOwner",
          "type": "address"
        },
        {
          "indexed": true,
          "internalType": "address",
          "name": "newOwner",
          "type": "address"
        }
      ],
      "name": "OwnershipTransferred",
      "type": "event"
    },
    {
      "anonymous": false,
      "inputs": [
        {
          "indexed": true,
          "internalType": "address",
          "name": "to",
          "type": "address"
        },
        {
          "indexed": true,
          "internalType": "uint256",
          "name": "tokenId",
          "type": "uint256"
        },
        {
          "indexed": false,
          "internalType": "string",
          "name": "uri",
          "type": "string"
        },
        {
          "indexed": false,
          "internalType": "bytes32",
          "name": "fileHash",
          "type": "bytes32"
        }
      ],
      "name": "TokenMinted",
      "type": "event"
    },
    {
      "anonymous": false,
      "inputs": [
        {
          "indexed": true,
          "internalType": "address",
          "name": "from",
          "type": "address"
        },
        {
          "indexed": true,
          "internalType": "address",
          "name": "to",
          "type": "address"
        },
        {
          "indexed": true,
          "internalType": "uint256",
          "name": "tokenId",
          "type": "uint256"
        }
      ],
      "name": "Transfer",
      "type": "event"
    },
    {
      "inputs": [],
      "name": "MAX_SUPPLY",
      "outputs": [
        {
          "internalType": "uint256",
          "name": "",
          "type": "uint256"
        }
      ],
      "stateMutability": "view",
      "type": "function"
    },
    {
      "inputs": [
        {
          "internalType": "address",
          "name": "to",
          "type": "address"
        },
        {
          "internalType": "uint256",
          "name": "tokenId",
          "type": "uint256"
        }
      ],
      "name": "approve",
      "outputs": [],
      "stateMutability": "nonpayable",
      "type": "function"
    },
    {
      "inputs": [
        {
          "internalType": "address",
          "name": "owner",
          "type": "address"
        }
      ],
      "name": "balanceOf",
      "outputs": [
        {
          "internalType": "uint256",
          "name": "",
          "type": "uint256"
        }
      ],
      "stateMutability": "view",
      "type": "function"
    },
    {
      "inputs": [
        {
          "internalType": "uint256",
          "name": "tokenId",
          "type": "uint256"
        }
      ],
      "name": "getApproved",
      "outputs": [
        {
          "internalType": "address",
          "name": "",
          "type": "address"
        }
      ],
      "stateMutability": "view",
      "type": "function"
    },
    {
      "inputs": [],
      "name": "getCurrentTokenId",
      "outputs": [
        {
          "internalType": "uint256",
          "name": "",
          "type": "uint256"
        }
      ],
      "stateMutability": "view",
      "type": "function"
    },
    {
      "inputs": [
        {
          "internalType": "address",
          "name": "owner",
          "type": "address"
        },
        {
          "internalType": "address",
          "name": "operator",
          "type": "address"
        }
      ],
      "name": "isApprovedForAll",
      "outputs": [
        {
          "internalType": "bool",
          "name": "",
          "type": "bool"
        }
      ],
      "stateMutability": "view",
      "type": "function"
    },
    {
      "inputs": [],
      "name": "name",
      "outputs": [
        {
          "internalType": "string",
          "name": "",
          "type": "string"
        }
      ],
      "stateMutability": "view",
      "type": "function"
    },
    {
      "inputs": [],
      "name": "owner",
      "outputs": [
        {
          "internalType": "address",
          "name": "",
          "type": "address"
        }
      ],
      "stateMutability": "view",
      "type": "function"
    },
    {
      "inputs": [
        {
          "internalType": "uint256",
          "name": "tokenId",
          "type": "uint256"
        }
      ],
      "name": "ownerOf",
      "outputs": [
        {
          "internalType": "address",
          "name": "",
          "type": "address"
        }
      ],
      "stateMutability": "view",
      "type": "function"
    },
    {
      "inputs": [],
      "name": "renounceOwnership",
      "outputs": [],
      "stateMutability": "nonpayable",
      "type": "function"
    },
    {
      "inputs": [
        {
          "internalType": "address",
          "name": "to",
          "type": "address"
        },
        {
          "internalType": "string",
          "name": "uri",
          "type": "string"
        },
        {
          "internalType": "bytes32",
          "name": "fileHash",
          "type": "bytes32"
        }
      ],
      "name": "safeMint",
      "outputs": [],
      "stateMutability": "nonpayable",
      "type": "function"
    },
    {
      "inputs": [
        {
          "internalType": "address",
          "name": "from",
          "type": "address"
        },
        {
          "internalType": "address",
          "name": "to",
          "type": "address"
        },
        {
          "internalType": "uint256",
          "name": "tokenId",
          "type": "uint256"
        }
      ],
      "name": "safeTransferFrom",
      "outputs": [],
      "stateMutability": "nonpayable",
      "type": "function"
    },
    {
      "inputs": [
        {
          "internalType": "address",
          "name": "from",
          "type": "address"
        },
        {
          "internalType": "address",
          "name": "to",
          "type": "address"
        },
        {
          "internalType": "uint256",
          "name": "tokenId",
          "type": "uint256"
        },
        {
          "internalType": "bytes",
          "name": "data",
          "type": "bytes"
        }
      ],
      "name": "safeTransferFrom",
      "outputs": [],
      "stateMutability": "nonpayable",
      "type": "function"
    },
    {
      "inputs": [
        {
          "internalType": "address",
          "name": "operator",
          "type": "address"
        },
        {
          "internalType": "bool",
          "name": "approved",
          "type": "bool"
        }
      ],
      "name": "setApprovalForAll",
      "outputs": [],
      "stateMutability": "nonpayable",
      "type": "function"
    },
    {
      "inputs": [
        {
          "internalType": "bytes4",
          "name": "interfaceId",
          "type": "bytes4"
        }
      ],
      "name": "supportsInterface",
      "outputs": [
        {
          "internalType": "bool",
          "name": "",
          "type": "bool"
        }
      ],
      "stateMutability": "view",
      "type": "function"
    },
    {
      "inputs": [],
      "name": "symbol",
      "outputs": [
        {
          "internalType": "string",
          "name": "",
          "type": "string"
        }
      ],
      "stateMutability": "view",
      "type": "function"
    },
    {
      "inputs": [
        {
          "internalType": "uint256",
          "name": "tokenId",
          "type": "uint256"
        }
      ],
      "name": "tokenHash",
      "outputs": [
        {
          "internalType": "bytes32",
          "name": "",
          "type": "bytes32"
        }
      ],
      "stateMutability": "view",
      "type": "function"
    },
    {
      "inputs": [
        {
          "internalType": "uint256",
          "name": "tokenId",
          "type": "uint256"
        }
      ],
      "name": "tokenURI",
      "outputs": [
        {
          "internalType": "string",
          "name": "",
          "type": "string"
        }
      ],
      "stateMutability": "view",
      "type": "function"
    },
    {
      "inputs": [],
      "name": "totalSupply",
      "outputs": [
        {
          "internalType": "uint256",
          "name": "",
          "type": "uint256"
        }
      ],
      "stateMutability": "view",
      "type": "function"
    },
    {
      "inputs": [
        {
          "internalType": "address",
          "name": "from",
          "type": "address"
        },
        {
          "internalType": "address",
          "name": "to",
          "type": "address"
        },
        {
          "internalType": "uint256",
          "name": "tokenId",
          "type": "uint256"
        }
      ],
      "name": "transferFrom",
      "outputs": [],
      "stateMutability": "nonpayable",
      "type": "function"
    },
    {
      "inputs": [
        {
          "internalType": "address",
          "name": "newOwner",
          "type": "address"
        }
      ],
      "name": "transferOwnership",
      "outputs": [],
      "stateMutability": "nonpayable",
      "type": "function"
    }
  ],
  "bytecode": "0x608060405234801561000f575f5ffd5b50604051612f85380380612f858339818101604052810190610031919061026e565b806040518060400160405280600a81526020017f5665726950726f6d7074000000000000000000000000000000000000000000008152506040518060400160405280600381526020017f5650540000000000000000000000000000000000000000000000000000000000815250815f90816100ac91906104d6565b5080600190816100bc91906104d6565b5050505f73ffffffffffffffffffffffffffffffffffffffff168173ffffffffffffffffffffffffffffffffffffffff160361012f575f6040517f1e4fbdf700000000000000000000000000000000000000000000000000000000815260040161012691906105b4565b60405180910390fd5b61013e8161014d60201b60201c565b506001600881905550506105cd565b5f60075f9054906101000a900473ffffffffffffffffffffffffffffffffffffffff1690508160075f6101000a81548173ffffffffffffffffffffffffffffffffffffffff021916908373ffffffffffffffffffffffffffffffffffffffff1602179055508173ffffffffffffffffffffffffffffffffffffffff168173ffffffffffffffffffffffffffffffffffffffff167f8be0079c531659141344cd1fd0a4f28419497f9722a3daafe3b4186f6b6457e060405160405180910390a35050565b5f5ffd5b5f73ffffffffffffffffffffffffffffffffffffffff82169050919050565b5f61023d82610214565b9050919050565b61024d81610233565b8114610257575f5ffd5b50565b5f8151905061026881610244565b92915050565b5f6020828403121561028357610282610210565b5b5f6102908482850161025a565b91505092915050565b5f81519050919050565b7f4e487b71000000000000000000000000000000000000000000000000000000005f52604160045260245ffd5b7f4e487b71000000000000000000000000000000000000000000000000000000005f52602260045260245ffd5b5f600282049050600182168061031457607f821691505b602082108103610327576103266102d0565b5b50919050565b5f819050815f5260205f209050919050565b5f6020601f8301049050919050565b5f82821b905092915050565b5f600883026103897fffffffffffffffffffffffffffffffffffffffffffffffffffffffffffffffff8261034e565b610393868361034e565b95508019841693508086168417925050509392505050565b5f819050919050565b5f819050919050565b5f6103d76103d26103cd846103ab565b6103b4565b6103ab565b9050919050565b5f819050919050565b6103f0836103bd565b6104046103fc826103de565b84845461035a565b825550505050565b5f5f905090565b61041b61040c565b6104268184846103e7565b505050565b5b818110156104495761043e5f82610413565b60018101905061042c565b5050565b601f82111561048e5761045f8161032d565b6104688461033f565b81016020851015610477578190505b61048b6104838561033f565b83018261042b565b50505b505050565b5f82821c905092915050565b5f6104ae5f1984600802610493565b1980831691505092915050565b5f6104c6838361049f565b9150826002028217905092915050565b6104df82610299565b67ffffffffffffffff8111156104f8576104f76102a3565b5b61050282546102fd565b61050d82828561044d565b5f60209050601f83116001811461053e575f841561052c578287015190505b61053685826104bb565b86555061059d565b601f19841661054c8661032d565b5f5b828110156105735784890151825560018201915060208501945060208101905061054e565b86831015610590578489015161058c601f89168261049f565b8355505b6001600288020188555050505b505050505050565b6105ae81610233565b82525050565b5f6020820190506105c75f8301846105a5565b92915050565b6129ab806105da5f395ff3fe608060405234801561000f575f5ffd5b5060043610610135575f3560e01c80636352211e116100b6578063a22cb4651161007a578063a22cb46514610327578063a386439714610343578063b88d4fde14610373578063c87b56dd1461038f578063e985e9c5146103bf578063f2fde38b146103ef57610135565b80636352211e1461028157806370a08231146102b1578063715018a6146102e15780638da5cb5b146102eb57806395d89b411461030957610135565b806323b872dd116100fd57806323b872dd146101f157806332cb6b0c1461020d57806342842e0e1461022b5780634e038a2714610247578063561892361461026357610135565b806301ffc9a71461013957806306fdde0314610169578063081812fc14610187578063095ea7b3146101b757806318160ddd146101d3575b5f5ffd5b610153600480360381019061014e9190611d1c565b61040b565b6040516101609190611d61565b60405180910390f35b61017161041c565b60405161017e9190611dea565b60405180910390f35b6101a1600480360381019061019c9190611e3d565b6104ab565b6040516101ae9190611ea7565b60405180910390f35b6101d160048036038101906101cc9190611eea565b6104c6565b005b6101db6104dc565b6040516101e89190611f37565b60405180910390f35b61020b60048036038101906102069190611f50565b6104e5565b005b6102156105e4565b6040516102229190611f37565b60405180910390f35b61024560048036038101906102409190611f50565b6105eb565b005b610261600480360381019061025c91906120ff565b61060a565b005b61026b6107b2565b6040516102789190611f37565b60405180910390f35b61029b60048036038101906102969190611e3d565b6107bb565b6040516102a89190611ea7565b60405180910390f35b6102cb60048036038101906102c6919061216b565b6107cc565b6040516102d89190611f37565b60405180910390f35b6102e9610882565b005b6102f3610895565b6040516103009190611ea7565b60405180910390f35b6103116108bd565b60405161031e9190611dea565b60405180910390f35b610341600480360381019061033c91906121c0565b61094d565b005b61035d60048036038101906103589190611e3d565b610963565b60405161036a919061220d565b60405180910390f35b61038d600480360381019061038891906122c4565b610987565b005b6103a960048036038101906103a49190611e3d565b6109ac565b6040516103b69190611dea565b60405180910390f35b6103d960048036038101906103d49190612344565b6109be565b6040516103e69190611d61565b60405180910390f35b6104096004803603810190610404919061216b565b610a4c565b005b5f61041582610ad0565b9050919050565b60605f805461042a906123af565b80601f0160208091040260200160405190810160405280929190818152602001828054610456906123af565b80156104a15780601f10610478576101008083540402835291602001916104a1565b820191905f5260205f20905b81548152906001019060200180831161048457829003601f168201915b5050505050905090565b5f6104b582610b30565b506104bf82610bb6565b9050919050565b6104d882826104d3610bef565b610bf6565b5050565b5f600954905090565b5f73ffffffffffffffffffffffffffffffffffffffff168273ffffffffffffffffffffffffffffffffffffffff1603610555575f6040517f64a0ae9200000000000000000000000000000000000000000000000000000000815260040161054c9190611ea7565b60405180910390fd5b5f6105688383610563610bef565b610c08565b90508373ffffffffffffffffffffffffffffffffffffffff168173ffffffffffffffffffffffffffffffffffffffff16146105de578382826040517f64283d7b0000000000000000000000000000000000000000000000000000000081526004016105d5939291906123df565b60405180910390fd5b50505050565b620f424081565b61060583838360405180602001604052805f815250610987565b505050565b610612610e13565b61061a610e9a565b5f73ffffffffffffffffffffffffffffffffffffffff168373ffffffffffffffffffffffffffffffffffffffff1603610688576040517f08c379a000000000000000000000000000000000000000000000000000000000815260040161067f9061245e565b60405180910390fd5b5f8251116106cb576040517f08c379a00000000000000000000000000000000000000000000000000000000081526004016106c2906124c6565b60405180910390fd5b620f424060095410610712576040517f08c379a00000000000000000000000000000000000000000000000000000000081526004016107099061252e565b60405180910390fd5b5f600954905060095f81548092919060010191905055506107338482610ee0565b61073d8184610efd565b81600a5f8381526020019081526020015f2081905550808473ffffffffffffffffffffffffffffffffffffffff167f7b93d20aa9666fff2b9034d25db8eefa4ada8752b0b713f599e9da3bd437e192858560405161079c92919061254c565b60405180910390a3506107ad610f57565b505050565b5f600954905090565b5f6107c582610b30565b9050919050565b5f5f73ffffffffffffffffffffffffffffffffffffffff168273ffffffffffffffffffffffffffffffffffffffff160361083d575f6040517f89c62b640000000000000000000000000000000000000000000000000000000081526004016108349190611ea7565b60405180910390fd5b60035f8373ffffffffffffffffffffffffffffffffffffffff1673ffffffffffffffffffffffffffffffffffffffff1681526020019081526020015f20549050919050565b61088a610e13565b6108935f610f61565b565b5f60075f9054906101000a900473ffffffffffffffffffffffffffffffffffffffff16905090565b6060600180546108cc906123af565b80601f01602080910402602001604051908101604052809291908181526020018280546108f8906123af565b80156109435780601f1061091a57610100808354040283529160200191610943565b820191905f5260205f20905b81548152906001019060200180831161092657829003601f168201915b5050505050905090565b61095f610958610bef565b8383611024565b5050565b5f61096d82610b30565b50600a5f8381526020019081526020015f20549050919050565b6109928484846104e5565b6109a661099d610bef565b8585858561118d565b50505050565b60606109b782611339565b9050919050565b5f60055f8473ffffffffffffffffffffffffffffffffffffffff1673ffffffffffffffffffffffffffffffffffffffff1681526020019081526020015f205f8373ffffffffffffffffffffffffffffffffffffffff1673ffffffffffffffffffffffffffffffffffffffff1681526020019081526020015f205f9054906101000a900460ff16905092915050565b610a54610e13565b5f73ffffffffffffffffffffffffffffffffffffffff168173ffffffffffffffffffffffffffffffffffffffff1603610ac4575f6040517f1e4fbdf7000000000000000000000000000000000000000000000000000000008152600401610abb9190611ea7565b60405180910390fd5b610acd81610f61565b50565b5f634906490660e01b7bffffffffffffffffffffffffffffffffffffffffffffffffffffffff1916827bffffffffffffffffffffffffffffffffffffffffffffffffffffffff19161480610b295750610b2882611444565b5b9050919050565b5f5f610b3b83611525565b90505f73ffffffffffffffffffffffffffffffffffffffff168173ffffffffffffffffffffffffffffffffffffffff1603610bad57826040517f7e273289000000000000000000000000000000000000000000000000000000008152600401610ba49190611f37565b60405180910390fd5b80915050919050565b5f60045f8381526020019081526020015f205f9054906101000a900473ffffffffffffffffffffffffffffffffffffffff169050919050565b5f33905090565b610c03838383600161155e565b505050565b5f5f610c1384611525565b90505f73ffffffffffffffffffffffffffffffffffffffff168373ffffffffffffffffffffffffffffffffffffffff1614610c5457610c5381848661171d565b5b5f73ffffffffffffffffffffffffffffffffffffffff168173ffffffffffffffffffffffffffffffffffffffff1614610cdf57610c935f855f5f61155e565b600160035f8373ffffffffffffffffffffffffffffffffffffffff1673ffffffffffffffffffffffffffffffffffffffff1681526020019081526020015f205f82825403925050819055505b5f73ffffffffffffffffffffffffffffffffffffffff168573ffffffffffffffffffffffffffffffffffffffff1614610d5e57600160035f8773ffffffffffffffffffffffffffffffffffffffff1673ffffffffffffffffffffffffffffffffffffffff1681526020019081526020015f205f82825401925050819055505b8460025f8681526020019081526020015f205f6101000a81548173ffffffffffffffffffffffffffffffffffffffff021916908373ffffffffffffffffffffffffffffffffffffffff160217905550838573ffffffffffffffffffffffffffffffffffffffff168273ffffffffffffffffffffffffffffffffffffffff167fddf252ad1be2c89b69c2b068fc378daa952ba7f163c4a11628f55a4df523b3ef60405160405180910390a4809150509392505050565b610e1b610bef565b73ffffffffffffffffffffffffffffffffffffffff16610e39610895565b73ffffffffffffffffffffffffffffffffffffffff1614610e9857610e5c610bef565b6040517f118cdaa7000000000000000000000000000000000000000000000000000000008152600401610e8f9190611ea7565b60405180910390fd5b565b600260085403610ed6576040517f3ee5aeb500000000000000000000000000000000000000000000000000000000815260040160405180910390fd5b6002600881905550565b610ef9828260405180602001604052805f8152506117e0565b5050565b8060065f8481526020019081526020015f209081610f1b919061271a565b507ff8e1a15aba9398e019f0b49df1a4fde98ee17ae345cb5f6b5e2c27f5033e8ce782604051610f4b9190611f37565b60405180910390a15050565b6001600881905550565b5f60075f9054906101000a900473ffffffffffffffffffffffffffffffffffffffff1690508160075f6101000a81548173ffffffffffffffffffffffffffffffffffffffff021916908373ffffffffffffffffffffffffffffffffffffffff1602179055508173ffffffffffffffffffffffffffffffffffffffff168173ffffffffffffffffffffffffffffffffffffffff167f8be0079c531659141344cd1fd0a4f28419497f9722a3daafe3b4186f6b6457e060405160405180910390a35050565b5f73ffffffffffffffffffffffffffffffffffffffff168273ffffffffffffffffffffffffffffffffffffffff160361109457816040517f5b08ba1800000000000000000000000000000000000000000000000000000000815260040161108b9190611ea7565b60405180910390fd5b8060055f8573ffffffffffffffffffffffffffffffffffffffff1673ffffffffffffffffffffffffffffffffffffffff1681526020019081526020015f205f8473ffffffffffffffffffffffffffffffffffffffff1673ffffffffffffffffffffffffffffffffffffffff1681526020019081526020015f205f6101000a81548160ff0219169083151502179055508173ffffffffffffffffffffffffffffffffffffffff168373ffffffffffffffffffffffffffffffffffffffff167f17307eab39ab6107e8899845ad3d59bd9653f200f220920489ca2b5937696c31836040516111809190611d61565b60405180910390a3505050565b5f8373ffffffffffffffffffffffffffffffffffffffff163b1115611332578273ffffffffffffffffffffffffffffffffffffffff1663150b7a02868685856040518563ffffffff1660e01b81526004016111eb949392919061283b565b6020604051808303815f875af192505050801561122657506040513d601f19601f820116820180604052508101906112239190612899565b60015b6112a7573d805f8114611254576040519150601f19603f3d011682016040523d82523d5f602084013e611259565b606091505b505f81510361129f57836040517f64a0ae920000000000000000000000000000000000000000000000000000000081526004016112969190611ea7565b60405180910390fd5b805160208201fd5b63150b7a0260e01b7bffffffffffffffffffffffffffffffffffffffffffffffffffffffff1916817bffffffffffffffffffffffffffffffffffffffffffffffffffffffff19161461133057836040517f64a0ae920000000000000000000000000000000000000000000000000000000081526004016113279190611ea7565b60405180910390fd5b505b5050505050565b606061134482610b30565b505f60065f8481526020019081526020015f208054611362906123af565b80601f016020809104026020016040519081016040528092919081815260200182805461138e906123af565b80156113d95780601f106113b0576101008083540402835291602001916113d9565b820191905f5260205f20905b8154815290600101906020018083116113bc57829003601f168201915b505050505090505f6113e9611803565b90505f8151036113fd57819250505061143f565b5f825111156114315780826040516020016114199291906128fe565b6040516020818303038152906040529250505061143f565b61143a84611819565b925050505b919050565b5f7f80ac58cd000000000000000000000000000000000000000000000000000000007bffffffffffffffffffffffffffffffffffffffffffffffffffffffff1916827bffffffffffffffffffffffffffffffffffffffffffffffffffffffff1916148061150e57507f5b5e139f000000000000000000000000000000000000000000000000000000007bffffffffffffffffffffffffffffffffffffffffffffffffffffffff1916827bffffffffffffffffffffffffffffffffffffffffffffffffffffffff1916145b8061151e575061151d8261187f565b5b9050919050565b5f60025f8381526020019081526020015f205f9054906101000a900473ffffffffffffffffffffffffffffffffffffffff169050919050565b808061159657505f73ffffffffffffffffffffffffffffffffffffffff168273ffffffffffffffffffffffffffffffffffffffff1614155b156116c8575f6115a584610b30565b90505f73ffffffffffffffffffffffffffffffffffffffff168373ffffffffffffffffffffffffffffffffffffffff161415801561160f57508273ffffffffffffffffffffffffffffffffffffffff168173ffffffffffffffffffffffffffffffffffffffff1614155b8015611622575061162081846109be565b155b1561166457826040517fa9fbf51f00000000000000000000000000000000000000000000000000000000815260040161165b9190611ea7565b60405180910390fd5b81156116c657838573ffffffffffffffffffffffffffffffffffffffff168273ffffffffffffffffffffffffffffffffffffffff167f8c5be1e5ebec7d5bd14f71427d1e84f3dd0314c0f7b2291e5b200ac8c7c3b92560405160405180910390a45b505b8360045f8581526020019081526020015f205f6101000a81548173ffffffffffffffffffffffffffffffffffffffff021916908373ffffffffffffffffffffffffffffffffffffffff16021790555050505050565b6117288383836118e8565b6117db575f73ffffffffffffffffffffffffffffffffffffffff168373ffffffffffffffffffffffffffffffffffffffff160361179c57806040517f7e2732890000000000000000000000000000000000000000000000000000000081526004016117939190611f37565b60405180910390fd5b81816040517f177e802f0000000000000000000000000000000000000000000000000000000081526004016117d2929190612921565b60405180910390fd5b505050565b6117ea83836119a8565b6117fe6117f5610bef565b5f85858561118d565b505050565b606060405180602001604052805f815250905090565b606061182482610b30565b505f61182e611803565b90505f81511161184c5760405180602001604052805f815250611877565b8061185684611a9b565b6040516020016118679291906128fe565b6040516020818303038152906040525b915050919050565b5f7f01ffc9a7000000000000000000000000000000000000000000000000000000007bffffffffffffffffffffffffffffffffffffffffffffffffffffffff1916827bffffffffffffffffffffffffffffffffffffffffffffffffffffffff1916149050919050565b5f5f73ffffffffffffffffffffffffffffffffffffffff168373ffffffffffffffffffffffffffffffffffffffff161415801561199f57508273ffffffffffffffffffffffffffffffffffffffff168473ffffffffffffffffffffffffffffffffffffffff161480611960575061195f84846109be565b5b8061199e57508273ffffffffffffffffffffffffffffffffffffffff1661198683610bb6565b73ffffffffffffffffffffffffffffffffffffffff16145b5b90509392505050565b5f73ffffffffffffffffffffffffffffffffffffffff168273ffffffffffffffffffffffffffffffffffffffff1603611a18575f6040517f64a0ae92000000000000000000000000000000000000000000000000000000008152600401611a0f9190611ea7565b60405180910390fd5b5f611a2483835f610c08565b90505f73ffffffffffffffffffffffffffffffffffffffff168173ffffffffffffffffffffffffffffffffffffffff1614611a96575f6040517f73c6ac6e000000000000000000000000000000000000000000000000000000008152600401611a8d9190611ea7565b60405180910390fd5b505050565b60605f6001611aa984611b65565b0190505f8167ffffffffffffffff811115611ac757611ac6611fa8565b5b6040519080825280601f01601f191660200182016040528015611af95781602001600182028036833780820191505090505b5090505f82602083010190505b600115611b5a578080600190039150507f3031323334353637383961626364656600000000000000000000000000000000600a86061a8153600a8581611b4f57611b4e612948565b5b0494505f8503611b06575b819350505050919050565b5f5f5f90507a184f03e93ff9f4daa797ed6e38ed64bf6a1f0100000000000000008310611bc1577a184f03e93ff9f4daa797ed6e38ed64bf6a1f0100000000000000008381611bb757611bb6612948565b5b0492506040810190505b6d04ee2d6d415b85acef81000000008310611bfe576d04ee2d6d415b85acef81000000008381611bf457611bf3612948565b5b0492506020810190505b662386f26fc100008310611c2d57662386f26fc100008381611c2357611c22612948565b5b0492506010810190505b6305f5e1008310611c56576305f5e1008381611c4c57611c4b612948565b5b0492506008810190505b6127108310611c7b576127108381611c7157611c70612948565b5b0492506004810190505b60648310611c9e5760648381611c9457611c93612948565b5b0492506002810190505b600a8310611cad576001810190505b80915050919050565b5f604051905090565b5f5ffd5b5f5ffd5b5f7fffffffff0000000000000000000000000000000000000000000000000000000082169050919050565b611cfb81611cc7565b8114611d05575f5ffd5b50565b5f81359050611d1681611cf2565b92915050565b5f60208284031215611d3157611d30611cbf565b5b5f611d3e84828501611d08565b91505092915050565b5f8115159050919050565b611d5b81611d47565b82525050565b5f602082019050611d745f830184611d52565b92915050565b5f81519050919050565b5f82825260208201905092915050565b8281835e5f83830152505050565b5f601f19601f8301169050919050565b5f611dbc82611d7a565b611dc68185611d84565b9350611dd6818560208601611d94565b611ddf81611da2565b840191505092915050565b5f6020820190508181035f830152611e028184611db2565b905092915050565b5f819050919050565b611e1c81611e0a565b8114611e26575f5ffd5b50565b5f81359050611e3781611e13565b92915050565b5f60208284031215611e5257611e51611cbf565b5b5f611e5f84828501611e29565b91505092915050565b5f73ffffffffffffffffffffffffffffffffffffffff82169050919050565b5f611e9182611e68565b9050919050565b611ea181611e87565b82525050565b5f602082019050611eba5f830184611e98565b92915050565b611ec981611e87565b8114611ed3575f5ffd5b50565b5f81359050611ee481611ec0565b92915050565b5f5f60408385031215611f0057611eff611cbf565b5b5f611f0d85828601611ed6565b9250506020611f1e85828601611e29565b9150509250929050565b611f3181611e0a565b82525050565b5f602082019050611f4a5f830184611f28565b92915050565b5f5f5f60608486031215611f6757611f66611cbf565b5b5f611f7486828701611ed6565b9350506020611f8586828701611ed6565b9250506040611f9686828701611e29565b9150509250925092565b5f5ffd5b5f5ffd5b7f4e487b71000000000000000000000000000000000000000000000000000000005f52604160045260245ffd5b611fde82611da2565b810181811067ffffffffffffffff82111715611ffd57611ffc611fa8565b5b80604052505050565b5f61200f611cb6565b905061201b8282611fd5565b919050565b5f67ffffffffffffffff82111561203a57612039611fa8565b5b61204382611da2565b9050602081019050919050565b828183375f83830152505050565b5f61207061206b84612020565b612006565b90508281526020810184848401111561208c5761208b611fa4565b5b612097848285612050565b509392505050565b5f82601f8301126120b3576120b2611fa0565b5b81356120c384826020860161205e565b91505092915050565b5f819050919050565b6120de816120cc565b81146120e8575f5ffd5b50565b5f813590506120f9816120d5565b92915050565b5f5f5f6060848603121561211657612115611cbf565b5b5f61212386828701611ed6565b935050602084013567ffffffffffffffff81111561214457612143611cc3565b5b6121508682870161209f565b9250506040612161868287016120eb565b9150509250925092565b5f602082840312156121805761217f611cbf565b5b5f61218d84828501611ed6565b91505092915050565b61219f81611d47565b81146121a9575f5ffd5b50565b5f813590506121ba81612196565b92915050565b5f5f604083850312156121d6576121d5611cbf565b5b5f6121e385828601611ed6565b92505060206121f4858286016121ac565b9150509250929050565b612207816120cc565b82525050565b5f6020820190506122205f8301846121fe565b92915050565b5f67ffffffffffffffff8211156122405761223f611fa8565b5b61224982611da2565b9050602081019050919050565b5f61226861226384612226565b612006565b90508281526020810184848401111561228457612283611fa4565b5b61228f848285612050565b509392505050565b5f82601f8301126122ab576122aa611fa0565b5b81356122bb848260208601612256565b91505092915050565b5f5f5f5f608085870312156122dc576122db611cbf565b5b5f6122e987828801611ed6565b94505060206122fa87828801611ed6565b935050604061230b87828801611e29565b925050606085013567ffffffffffffffff81111561232c5761232b611cc3565b5b61233887828801612297565b91505092959194509250565b5f5f6040838503121561235a57612359611cbf565b5b5f61236785828601611ed6565b925050602061237885828601611ed6565b9150509250929050565b7f4e487b71000000000000000000000000000000000000000000000000000000005f52602260045260245ffd5b5f60028204905060018216806123c657607f821691505b6020821081036123d9576123d8612382565b5b50919050565b5f6060820190506123f25f830186611e98565b6123ff6020830185611f28565b61240c6040830184611e98565b949350505050565b7f5665726950726f6d70743a206d696e7420746f207a65726f20616464726573735f82015250565b5f612448602083611d84565b915061245382612414565b602082019050919050565b5f6020820190508181035f8301526124758161243c565b9050919050565b7f5665726950726f6d70743a20656d7074792055524900000000000000000000005f82015250565b5f6124b0601583611d84565b91506124bb8261247c565b602082019050919050565b5f6020820190508181035f8301526124dd816124a4565b9050919050565b7f5665726950726f6d70743a206d617820737570706c79207265616368656400005f82015250565b5f612518601e83611d84565b9150612523826124e4565b602082019050919050565b5f6020820190508181035f8301526125458161250c565b9050919050565b5f6040820190508181035f8301526125648185611db2565b905061257360208301846121fe565b9392505050565b5f819050815f5260205f209050919050565b5f6020601f8301049050919050565b5f82821b905092915050565b5f600883026125d67fffffffffffffffffffffffffffffffffffffffffffffffffffffffffffffffff8261259b565b6125e0868361259b565b95508019841693508086168417925050509392505050565b5f819050919050565b5f61261b61261661261184611e0a565b6125f8565b611e0a565b9050919050565b5f819050919050565b61263483612601565b61264861264082612622565b8484546125a7565b825550505050565b5f5f905090565b61265f612650565b61266a81848461262b565b505050565b5b8181101561268d576126825f82612657565b600181019050612670565b5050565b601f8211156126d2576126a38161257a565b6126ac8461258c565b810160208510156126bb578190505b6126cf6126c78561258c565b83018261266f565b50505b505050565b5f82821c905092915050565b5f6126f25f19846008026126d7565b1980831691505092915050565b5f61270a83836126e3565b9150826002028217905092915050565b61272382611d7a565b67ffffffffffffffff81111561273c5761273b611fa8565b5b61274682546123af565b612751828285612691565b5f60209050601f831160018114612782575f8415612770578287015190505b61277a85826126ff565b8655506127e1565b601f1984166127908661257a565b5f5b828110156127b757848901518255600182019150602085019450602081019050612792565b868310156127d457848901516127d0601f8916826126e3565b8355505b6001600288020188555050505b505050505050565b5f81519050919050565b5f82825260208201905092915050565b5f61280d826127e9565b61281781856127f3565b9350612827818560208601611d94565b61283081611da2565b840191505092915050565b5f60808201905061284e5f830187611e98565b61285b6020830186611e98565b6128686040830185611f28565b818103606083015261287a8184612803565b905095945050505050565b5f8151905061289381611cf2565b92915050565b5f602082840312156128ae576128ad611cbf565b5b5f6128bb84828501612885565b91505092915050565b5f81905092915050565b5f6128d882611d7a565b6128e281856128c4565b93506128f2818560208601611d94565b80840191505092915050565b5f61290982856128ce565b915061291582846128ce565b91508190509392505050565b5f6040820190506129345f830185611e98565b6129416020830184611f28565b9392505050565b7f4e487b71000000000000000000000000000000000000000000000000000000005f52601260045260245ffdfea2646970667358221220d0dab7a7f7e5875420a9211329db17aa64109c9db494ab8dc245cfc6c625b0a964736f6c634300081c0033",
  "linkReferences": {},
  "deployedLinkReferences": {},
  "immutableReferences": {},
  "inputSourceName": "project/contracts/VeriPrompt.sol",
  "buildInfoId": "solc-0_8_28-29855c3bfde267dd592e291ca076c13c1318c228"
}